{
  "_format": "hh-sol-artifact-1",
  "contractName": "Donation",
  "sourceName": "contracts/Donation.sol",
  "abi": [
    {
      "inputs": [],
      "stateMutability": "nonpayable",
      "type": "constructor"
    },
    {
      "inputs": [],
      "name": "getDonation",
      "outputs": [
        {
          "components": [
            {
              "internalType": "address",
              "name": "donor",
              "type": "address"
            },
            {
              "internalType": "uint256",
              "name": "amount",
              "type": "uint256"
            }
          ],
          "internalType": "struct Donation.Donation[]",
          "name": "",
          "type": "tuple[]"
        }
      ],
      "stateMutability": "view",
      "type": "function"
    },
    {
      "inputs": [],
      "name": "getTotalDonation",
      "outputs": [
        {
          "internalType": "uint256",
          "name": "",
          "type": "uint256"
        }
      ],
      "stateMutability": "view",
      "type": "function"
    },
    {
      "stateMutability": "payable",
      "type": "receive"
    }
  ],
  "bytecode": "0x608060405234801561001057600080fd5b50336000806101000a81548173ffffffffffffffffffffffffffffffffffffffff021916908373ffffffffffffffffffffffffffffffffffffffff1602179055506104ae806100606000396000f3fe60806040526004361061002d5760003560e01c80634bf717291461017257806356e23eb11461019d5761016d565b3661016d5760405180604001604052803373ffffffffffffffffffffffffffffffffffffffff16815260200134815250600260008201518160000160006101000a81548173ffffffffffffffffffffffffffffffffffffffff021916908373ffffffffffffffffffffffffffffffffffffffff160217905550602082015181600101559050506004600290806001815401808255809150506001900390600052602060002090600202016000909190919091506000820160009054906101000a900473ffffffffffffffffffffffffffffffffffffffff168160000160006101000a81548173ffffffffffffffffffffffffffffffffffffffff021916908373ffffffffffffffffffffffffffffffffffffffff160217905550600182015481600101555050346001600082825461016591906102ca565b925050819055005b600080fd5b34801561017e57600080fd5b506101876101c8565b604051610194919061042c565b60405180910390f35b3480156101a957600080fd5b506101b2610287565b6040516101bf919061045d565b60405180910390f35b60606004805480602002602001604051908101604052809291908181526020016000905b8282101561027e57838290600052602060002090600202016040518060400160405290816000820160009054906101000a900473ffffffffffffffffffffffffffffffffffffffff1673ffffffffffffffffffffffffffffffffffffffff1673ffffffffffffffffffffffffffffffffffffffff168152602001600182015481525050815260200190600101906101ec565b50505050905090565b6000600154905090565b6000819050919050565b7f4e487b7100000000000000000000000000000000000000000000000000000000600052601160045260246000fd5b60006102d582610291565b91506102e083610291565b92508282019050808211156102f8576102f761029b565b5b92915050565b600081519050919050565b600082825260208201905092915050565b6000819050602082019050919050565b600073ffffffffffffffffffffffffffffffffffffffff82169050919050565b60006103558261032a565b9050919050565b6103658161034a565b82525050565b61037481610291565b82525050565b604082016000820151610390600085018261035c565b5060208201516103a3602085018261036b565b50505050565b60006103b5838361037a565b60408301905092915050565b6000602082019050919050565b60006103d9826102fe565b6103e38185610309565b93506103ee8361031a565b8060005b8381101561041f57815161040688826103a9565b9750610411836103c1565b9250506001810190506103f2565b5085935050505092915050565b6000602082019050818103600083015261044681846103ce565b905092915050565b61045781610291565b82525050565b6000602082019050610472600083018461044e565b9291505056fea26469706673582212200c942820d36ab07a1ba63a28f14cef9aaf7dbb2e65db7aa511aa9338174965a764736f6c63430008110033",
  "linkReferences": {},
  "deployedLinkReferences": {}
}